:100000000C9403040C9434040C9434040C943404C1
:100010000C9434040C9434040C9434040C94340480
:100020000C9434040C9434040C9434040C94340470
:100030000C9434040C9434040C9434040C94340460
:100040000C9434040C9434040C9434040C94340450
:100050000C9434040C9434040C9434040C94F70978
:100060000C9434040C94170C0C940F0D0C94340461
:100070000C9434040C9434040C9434040C94340420
:100080000C9434040C9434040C9434040C94340410
:100090000C94550C0C944E0D0C9434040C943404B4
:1000A0000C9434040C9434040C9434040C943404F0
:1000B0000C9434040C9434040C9434040C943404E0
:1000C0000C9434040C9434040C9434040C94930C69
:1000D0000C948D0D0C9434040C94D10C0C94CC0D18
:1000E0000C94340478387B386E387238B2387F38E4
:1000F000833889388D38913897389B389F38B23893
:10010000A538A938AD380C94C0190C940D180C946E
:10011000EF360C947F380C941B090C9437110C9417
:100120008D380C9491380C947D350C94EE0A0C9417
:100130008B0B0C94F4180C946D0F0C94A40B0C9472
:1001400031330C94930E0C947D0F0C9415090C9480
:1001500072380C9497380C947B0B0C947B380C946D
:1001600026090C947A0B0C9463090C9475100C946A
:100170009C0F0C949B380C949D0F0C9416100C94AF
:1001800036040C9419190C9489380C940C120C94A4
:100190005D320C9404340C9415060C94C50B0C942D
:1001A0003B310C941F090C94CC090C94CB2F0C946C
:1001B000D00B0C94C6130C949F380C94F5120C942D
:1001C0007E0F0C94660F0C9451300C94AD380C9447
:1001D00078380C94650F0C94A9380C94B60F0C94D5
:1001E00017090C9483380C94B2380C946E380C9424
:1001F000FF180C94A5380C94A2110C94370400003D
:100200000000003E5B4F5B3E3E6B4F6B3E1C3E7CF6
:100210003E1C183C7E3C181C577D571C1C5E7F5EA4
:100220001C00183C1800FFE7C3E7FF001824180063
:10023000FFE7DBE7FF30483A060E262979292640FA
:100240007F050507407F05253F5A3CE73C5A7F3E26
:100250001C1C08081C1C3E7F14227F22145F5F00B8
:100260005F5F06097F017F006689956A6060606054
:100270006094A2FFA29408047E040810207E20103F
:1002800008082A1C08081C2A08081E101010100C48
:100290001E0C1E0C30383E3830060E3E0E06000096
:1002A00000000000005F00000007000700147F143A
:1002B0007F14242A7F2A12231308646236495620A9
:1002C000500008070300001C2241000041221C00CE
:1002D0002A1C7F1C2A08083E08080080703000088D
:1002E00008080808000060600020100804023E5161
:1002F00049453E00427F40007249494946214149F3
:100300004D331814127F1027454545393C4A494959
:100310003141211109073649494936464949291EC3
:1003200000001400000040340000000814224114B2
:1003300014141414004122140802015909063E4104
:100340005D594E7C1211127C7F494949363E41412C
:1003500041227F4141413E7F494949417F09090985
:10036000013E414151737F0808087F00417F4100F1
:100370002040413F017F081422417F404040407FA0
:10038000021C027F7F0408107F3E4141413E7F09ED
:100390000909063E4151215E7F091929462649492E
:1003A000493203017F01033F4040403F1F2040206E
:1003B0001F3F4038403F631408146303047804036C
:1003C0006159494D43007F4141410204081020001A
:1003D0004141417F0402010204404040404000038B
:1003E00007080020545478407F2844443838444457
:1003F0004428384444287F385454541800087E094F
:100400000218A4A49C787F0804047800447D40006E
:100410002040403D007F1028440000417F40007C88
:10042000047804787C080404783844444438FC1880
:1004300024241818242418FC7C0804040848545464
:10044000542404043F44243C4040207C1C20402091
:100450001C3C4030403C44281028444C9090907CF8
:100460004464544C4400083641000000770000000A
:100470004136080002010204023C2623263C1EA14C
:10048000A161123A4040207A3854545559215555AB
:10049000794122545478422155547840205455795A
:1004A000400C1E52721239555555593954545459ED
:1004B00039555454580000457C410002457D4200A6
:1004C00001457C407D1211127DF0282528F07C54D6
:1004D0005545002054547C547C0A097F49324949CF
:1004E00049323A4444443A324A4848303A41412138
:1004F0007A3A42402078009DA0A07D3D4242423D94
:100500003D4040403D3C24FF2424487E4943662B27
:100510002FFC2F2BFF0929F620C0887E09032054C9
:100520005479410000447D413048484A32384040C7
:10053000227A007A0A0A727D0D19317D2629292F27
:1005400028262929292630484D402038080808083F
:1005500008080808382F10C8ACBA2F102834FA0041
:10056000007B000008142A142222142A14085500C3
:10057000550055AA55AA55AAFF55FF55FF00000082
:10058000FF00101010FF00141414FF001010FF00E3
:10059000FF1010F010F0141414FC001414F700FFF6
:1005A0000000FF00FF1414F404FC141417101F10B3
:1005B000101F101F1414141F00101010F000000062
:1005C000001F101010101F10101010F0100000006D
:1005D000FF101010101010101010FF10000000FF7E
:1005E000140000FF00FF00001F10170000FC04F4BF
:1005F00014141710171414F404F40000FF00F71477
:10060000141414141414F700F714141417141010FD
:100610001F101F141414F4141010F010F000001F19
:10062000101F0000001F14000000FC140000F01058
:10063000F01010FF10FF141414FF141010101F00FE
:10064000000000F010FFFFFFFFFFF0F0F0F0F0FF00
:10065000FFFF0000000000FFFF0F0F0F0F0F3844D7
:10066000443844FC4A4A4A347E02020606027E02AC
:100670007E0263554941633844443C04407E201E59
:100680002006027E020299A5E7A5991C2A492A1C88
:100690004C7201724C304A4D4D303048784830BC75
:1006A000625A463D3E494949007E0101017E2A2A9F
:1006B0002A2A2A44445F444440514A444040444A20
:1006C00051400000FF0103E080FF000008086B6B51
:1006D000083612362436060F090F060000181800D7
:1006E00000001010003040FF0101001F01011E003A
:1006F000191D1712003C3C3C3C00000000000000AB
:10070000090A02080B0C0D07060304010000000093
:1007100000000000000000000000000000000000D9
:100720000000000000000000000011100F00000099
:1007300000000000000000000000000000000000B9
:1007400000000000010210202008081020401020A6
:100750004080020102010804020101020408102085
:100760004080804020100804020180040201804083
:1007700020100804020108040201010204081020EC
:10078000408001020408102040800505050507058A
:1007900008080808020202020A0A080804040404FD
:1007A0000101010101010101030303030303030329
:1007B000040707070C0C0C0C0C0C0C0C02020202B8
:1007C00006060606060606060B0B0B0B0B0B0B0BA1
:1007D00000002200250028002B002E0031003400EC
:1007E00002010000050108010B01000021002400A6
:1007F00027002A002D003000330001010000040111
:1008000007010A01930E11241FBECFEFD1E2DEBF14
:10081000CDBF00E00CBF12E0A0E0B2E0EEEBFAE7E3
:1008200000E00BBF02C007900D92AE3BB107D9F7B5
:1008300025E0AEEBB2E001C01D92A337B207E1F7AD
:1008400014E0C3E0D4E000E006C021970109802F46
:10085000FE010E94373DC230D10780E00807A9F7AA
:100860000E9462060C94803A0C94000008954F9206
:100870005F926F927F928F929F92AF92BF92CF9230
:10088000DF92EF92FF920F931F93CF93DF93CDB739
:10089000DEB7A0970FB6F894DEBF0FBECDBF8C01B8
:1008A0008CA99DA9AEA9BFA9898F9A8FAB8FBC8F48
:1008B00088AD99ADAAADBBAD8D8B9E8BAF8BB88F3C
:1008C0008CAD9DADAEADBFAD898B9A8BAB8BBC8B28
:1008D00024968CAD9DADAEADBFAD24978D879E8720
:1008E000AF87B88B28968CAD9DADAEADBFAD2897C8
:1008F00089879A87AB87BC872C968CAD9DADAEADB2
:10090000BFAD2C978D839E83AF83B887D8011A968D
:100910002D913D914D915C911D9769897A898B89C3
:100920009C890E94833A69837A838B839C83F80134
:1009300026813781408551856D897E898F89988D83
:100940000E94833A6B017C01D80112962D913D9152
:100950004D915C911597698D7A8D8B8D9C8D0E9440
:10096000833A4B015C0129853A854B855C85C7013B
:10097000B6010E944D3C2B013C012D853E854F85E3
:100980005889C501B4010E944D3C9B01AC01C301D3
:10099000B2010E94843A2B013C012D813E814F819E
:1009A000588569817A818B819C810E944D3C9B0195
:1009B000AC01C301B2010E94843A2B013C01F80151
:1009C00066857785808991899B01AC010E944D3CA9
:1009D0006D8F7E8F8F8F98A3A5019401C501B401FF
:1009E0000E944D3C4B015C01A7019601C701B60175
:1009F0000E944D3C9B01AC01C501B4010E94843AA8
:100A00009B01AC016D8D7E8D8F8D98A10E94833AE4
:100A10006B017C0129813A814B815C81CA01B9015A
:100A20000E944D3C9B01AC01C701B6010E94833A74
:100A30006B017C01A3019201C301B2010E944D3CF4
:100A40009B01AC01C701B6010E94843A6B017C0195
:100A500020E030E0A9010E94F03A87FDE1C0530197
:100A60004201B7FAB094B7F8B09420E030E0A901A1
:100A7000C701B6010E94F03A882309F481C0C7017A
:100A8000B6010E94C03C6B017C01A30192010E944F
:100A9000833A2B013C01A7019601C501B4010E94D4
:100AA000833A6B017C019B01AC01B201C3010E943E
:100AB000483C87FDB7C020E030E0A901B201C30186
:100AC0000E94F03A87FDACC02D853E854F85588940
:100AD000B201C3010E944D3C298D3A8D4B8D5C8D36
:100AE0000E94843A2E96EEADFFAD2E9760837183FF
:100AF0008283938329853A854B855C85B201C30146
:100B00000E944D3C2D893E894F89588D0E94843A20
:100B10002E96AEADBFAD2E9714966D937D938D93AB
:100B20009C9317972D813E814F815885B201C30157
:100B30000E944D3C29893A894B895C890E94843AFC
:100B40002E96EEADFFAD2E976087718782879387D3
:100B500081E0A0960FB6F894DEBF0FBECDBFDF9147
:100B6000CF911F910F91FF90EF90DF90CF90BF90AA
:100B7000AF909F908F907F906F905F904F9008956F
:100B800020E030E0A901C501B4010E94483C87FD86
:100B900047C02D853E854F855889C501B4010E9407
:100BA0004D3C298D3A8D4B8D5C8D0E94843A2E965A
:100BB000AEADBFAD2E976D937D938D939C931397A0
:100BC00029853A854B855C85C501B4010E944D3C61
:100BD0002D893E894F89588D0E94843A2E96EEAD1C
:100BE000FFAD2E9764837583868397832D813E8125
:100BF0004F815885C501B4010E944D3C29893A892D
:100C00004B895C890E94843A2E96AEADBFAD2E977B
:100C100018966D937D938D939C931B9781E099CF4C
:100C200080E097CF2601370146CF0C94780B8F9246
:100C30009F92AF92BF92CF92DF92EF92FF920F936B
:100C40001F93CF93DF93CDB7DEB72C970FB6F894F1
:100C5000DEBF0FBECDBFC982DA82EB82FC820D837C
:100C60001E832F83388749875A876B877C87DC01EF
:100C70002AE032E02D933D932CE0FE013196019065
:100C80000D922A95E1F7FC0186869786A08AB18AA3
:100C90002C960FB6F894DEBF0FBECDBFDF91CF917B
:100CA0001F910F91FF90EF90DF90CF90BF90AF908A
:100CB0009F908F90089524E132E0FC0131832083DE
:100CC000089508952F923F924F925F926F927F9274
:100CD0008F929F92AF92BF92CF92DF92EF92FF924C
:100CE0000F931F93CF93DF93CDB7DEB7C254D109D3
:100CF0000FB6F894DEBF0FBECDBF89E390E00E942F
:100D0000760B1C010E943509D101ED91FC91068002
:100D1000F781E02DC10119958C01D101ED91FC9174
:100D20000084F185E02DC10119957C01B80180E0B6
:100D300090E00E94963B9B01AC0160E070E080E295
:100D400091E40E94F53A4B015C01B70180E090E02C
:100D50000E94963B9B01AC01C501B4010E944D3C31
:100D600023966CAF7DAF8EAF9FAF239762E272E0A8
:100D70008DE293E00E941A0BD101ED91FC9102806B
:100D8000F381E02D19821A821B821C821D821E8231
:100D90001F82188619861A861B861C86C12CDA804B
:100DA000EB80FC8000E01E812F81388540E05A8571
:100DB0006B857C85C10119956BE272E08DE293E051
:100DC0000E941A0B19821A821B821C821D821E82AB
:100DD0001F821886412C512C30E5632E31E4732E8E
:100DE00049865A866B867C8682E190E00E94760B6B
:100DF0009CAF8BAF812C912CA12C40E4B42EC980E8
:100E0000DA80EB80FC800D811E812F813885498539
:100E10005A856B857C850E941706EBADFCADFAAB5D
:100E2000E9AB19821A821B821C8220E030E040E488
:100E300050E42D833E834F83588749865A866B86BC
:100E40007C8682E190E00E94760B3C01812C912C03
:100E500050E8A52E5FE3B52EC980DA80EB80FC80D8
:100E60000D811E812F81388549855A856B857C854A
:100E70000E9417067CAA6BAA80E090E0A0E4B0E490
:100E800089839A83AB83BC8380E090E0A0E0B0E4E8
:100E90008D839E83AF83B88780E090E0A0E4B1E4C7
:100EA00089879A87AB87BC8782E190E00E94760BA6
:100EB0003C01812C912CA12C60E4B62EC980DA80F3
:100EC000EB80FC800D811E812F81388549855A85F4
:100ED0006B857C850E9417067EAA6DAA6CE372E082
:100EE0008DE293E00E941A0B1EAE1DAEDE01D79676
:100EF000B8AFAFABFE01B596FAAFE9AFD101ED9156
:100F0000FC910680F781E02DC1011995EDADFEAD94
:100F1000E817F90708F03CC11CAE1BAED101ED91FA
:100F2000FC910084F185E02DC1011995EBADFCAD7C
:100F3000E817F90708F072C1D101ED91FC91068024
:100F4000F781E02DC10119957C01D101ED91FC9152
:100F50000680F781E02DC10119955C01F694E794B4
:100F60006DAD7EAD6E197F0980E090E00E94963BEA
:100F700020E030E040E251E40E944D3C6B017C01F6
:100F8000B50180E090E00E94963B9B01AC01C70157
:100F9000B6010E94F53A2B013C01D101ED91FC9183
:100FA0000084F185E02DC1011995969587956BAD6B
:100FB0007CAD681B790B80E090E00E94963B239605
:100FC0002CAD3DAD4EAD5FAD23970E944D3C6B0106
:100FD0007C01D101ED91FC910084F185E02DC101EE
:100FE0001995BC0180E090E00E94963B9B01AC010A
:100FF000C701B6010E94F53A4B015C01A3019201C1
:10100000C301B2010E944D3C6B017C01A50194011A
:10101000C501B4010E944D3C9B01AC01C701B60162
:101020000E94843A20E030E048EC52E40E94843A86
:101030000E94C03C9B01AC0160E070E080E89FE34F
:101040000E94F53A6B017C0119821A821B821C8274
:101050001D821E821F82188619861A861B861C8690
:101060009B01AC01C301B2010E944D3C6D877E879C
:101070008F87988BA7019601C501B4010E944D3C52
:10108000698B7A8B8B8B9C8B20E030E040E251E4C3
:10109000C701B6010E944D3C6D8B7E8B8F8B988F64
:1010A0001DA21EA21FA218A619A61AA61BA61CA640
:1010B0001DA61EA61FA618AAFE01F1963F01D30188
:1010C0008D919D913D01009709F44CC0FC01208158
:1010D0003181FAADFF9349AD4F93ADB7BEB7589785
:1010E0000FB6F894BEBF0FBEADBF1196FE0131968C
:1010F00048E101900D924A95E1F7D9011496ED91DE
:10110000FC91159719950FB6F894DEBF0FBECDBFB1
:10111000882341F1D101ED91FC910480F581E02D0E
:10112000812C80E090E0A0E8BFE3898F9A8FAB8F9D
:10113000BC8FC12C8D8F9E8FAF8FB8A300E089A389
:101140009AA3ABA3BCA39A8CAB8CBC8CDE8CEF8C2B
:10115000F8A01AA12BA13CA14BAD5CAD6DAD7EAD4D
:10116000C10119952FA938AD2615370509F0A7CF6C
:10117000D101ED91FC910190F081E02DC101199513
:10118000882381F0EBADFCAD3196FCAFEBAFC6CE62
:10119000D101ED91FC910190F081E02DC1011995F3
:1011A0008111F6CF2114310441F0D101ED91FC9170
:1011B0000484F585E02DC1011995FE01F1967F01AA
:1011C000D7018D919D917D01009739F0DC01ED9162
:1011D000FC910280F381E02D1995EFA9F8ADEE1591
:1011E000FF0571F780E090E0CE5BDF4F0FB6F8941B
:1011F000DEBF0FBECDBFDF91CF911F910F91FF904A
:10120000EF90DF90CF90BF90AF909F908F907F90A6
:101210006F905F904F903F902F9008952DAD3EAD11
:101220002F5F3F4F3EAF2DAF69CE81E00895FC01A7
:10123000828193810895FC0184819581089520E540
:1012400032E0FC01318320830C946106CF93DF935D
:10125000EC0180E592E099838883CE010E946106CB
:10126000CE01DF91CF910C94780BCF93DF93EC01FB
:101270000E945B0680E592E09983888380E491E098
:101280009B838A8380EF90E09D838C8326962FEF4B
:1012900049E06AE0CE010E94931A0E948C0A40E85D
:1012A00055E260E070E08DE293E00E940B0E40E0BA
:1012B00050E0BA01CE010E94411B63E0CE01DF91F4
:1012C000CF910C94C019AF92BF92CF92DF92EF9260
:1012D000FF920F931F93CF93DF93CDB7DEB72C9779
:1012E0000FB6F894DEBF0FBECDBF5C01C982DA82B3
:1012F000EB82FC820D831E832F83388749875A87B0
:101300006B877C8720E030E040E052E469817A819D
:101310008B819C810E944D3C0E94673B00E010E065
:10132000162F110F110F110F20E030E040E852E4AA
:101330006D817E818F8198850E944D3C0E94673B24
:10134000660F771F62957295707F7627607F76278C
:10135000060F171F20E030E040E052E469857A85EF
:101360008B859C850E944D3C0E94673B600F711FDE
:10137000C50106962C960FB6F894DEBF0FBECDBF02
:10138000DF91CF911F910F91FF90EF90DF90CF9061
:10139000BF90AF900C947E0F8F929F92AF92BF92AE
:1013A000CF92DF92EF92FF920F931F93CF93DF9331
:1013B000CDB7DEB72C970FB6F894DEBF0FBECDBF0A
:1013C0002FEF3FEF06962C960FB6F894DEBF0FBEB8
:1013D000CDBFDF91CF911F910F91FF90EF90DF90E4
:1013E000CF90BF90AF909F908F900C943B311F9205
:1013F0000F920FB60F9211242F933F938F939F93C9
:10140000AF93BF938091BF029091C002A091C1029F
:10141000B091C2023091BE0223E0230F2D3720F499
:101420000196A11DB11D05C026E8230F0296A11D3E
:10143000B11D2093BE028093BF029093C002A0937F
:10144000C102B093C2028091C3029091C402A091E4
:10145000C502B091C6020196A11DB11D8093C302C1
:101460009093C402A093C502B093C602BF91AF91FE
:101470009F918F913F912F910F900FBE0F901F90D2
:1014800018953FB7F8948091C3029091C402A0913F
:10149000C502B091C60226B5A89B05C02F3F19F022
:1014A0000196A11DB11D3FBFBA2FA92F982F8827E4
:1014B000820F911DA11DB11DBC01CD0142E0660F3F
:1014C000771F881F991F4A95D1F70895CF92DF9211
:1014D000EF92FF92CF93DF936B017C010E94410A50
:1014E000EB01C114D104E104F10479F00E94410A36
:1014F0006C1B7D0B683E7340A0F381E0C81AD108D5
:10150000E108F108C851DC4FECCFDF91CF91FF909B
:10151000EF90DF90CF900895789484B5826084BD79
:1015200084B5816084BD85B5826085BD85B58160E7
:1015300085BDEEE6F0E0808181608083E1E8F0E047
:101540001082808182608083808181608083E0E876
:10155000F0E0808181608083E1EBF0E08081846055
:101560008083E0EBF0E0808181608083E1E9F0E05E
:10157000808182608083808181608083E0E9F0E007
:10158000808181608083E1EAF0E0808182608083F5
:10159000808181608083E0EAF0E0808181608083E7
:1015A000E1E2F1E0808182608083808181608083DC
:1015B000E0E2F1E0808181608083EAE7F0E0808111
:1015C0008460808380818260808380818160808369
:1015D0008081806880831092C1000895CF92DF924D
:1015E000EF92FF920F931F93CF93DF934115510515
:1015F000F1F08C017B01EA01C12CD12CD7016D9156
:101600007D01D801ED91FC910190F081E02DC801A0
:101610001995C80ED91E219789F7C601DF91CF9180
:101620001F910F91FF90EF90DF90CF900895C12C04
:10163000D12CF3CFCF92DF92EF92FF920F931F93B3
:10164000CF93DF938C01FC01A081B18161157105FD
:1016500009F442C01296ED91FC911397EB010990A9
:101660000020E9F72197AE01461B570B8AE0EE3EBA
:10167000F807A9F54115510579F16B01EA01E12C53
:10168000F12CF60161916F01ED91FC91C801199562
:10169000E80EF91E2197F801A081B181209789F702
:1016A000ED91FC916DE0C8011995EC01D801ED9127
:1016B000FC910190F081E02D6AE0C8011995EC0ED3
:1016C000FD1E8E0D9F1DDF91CF911F910F91FF90F9
:1016D000EF90DF90CF900895E12CF12CE1CFC8017D
:1016E00019957C01F801A081B181DACF0C941F39E2
:1016F0000C94B4390895FC0124853585F901E05C2A
:10170000FF4F80819181329620813181821B930B22
:101710008F7399270895FC0184859585FC01E05C11
:10172000FF4F40815181329620813181421753070A
:1017300041F020813181FC01E20FF31F808190E0B4
:1017400008958FEF9FEF0895FC0184859585FC0136
:10175000E05CFF4F408151813296208131814217F8
:10176000530781F020813181DC01A20FB31F8C91DE
:10177000208131812F5F3F4F2F73332731832083A7
:1017800090E008958FEF9FEF0895FC0181A18823D9
:1017900029F0A489B5899C9196FFFDCF11A20895E7
:1017A000CF93DF93DC011E96CD91DC911F97CE0184
:1017B000805C9F4FFC01408151814F5F5F4F4F73B1
:1017C000552732962081318124173507D9F3FC0142
:1017D00080819181FE01E80FF91F60831E96ED91D3
:1017E000FC911F97E05CFF4F518340835696ED912B
:1017F000FC915797208181E090E05F960C905F9775
:1018000002C0880F991F0A94E2F7822B808381E03F
:1018100091968C9391975496ED91FC915597808178
:101820008064808381E090E0DF91CF9108951F92E2
:101830000F920FB60F9211240BB60F922F933F9376
:101840004F938F939F93EF93FF938091C00082FDFE
:1018500029C04091C60080916B0590916C0501965E
:101860008F73992720916D0530916E05821793072C
:1018700059F0E0916B05F0916C05E55DFA4F4083FE
:1018800090936C0580936B05FF91EF919F918F91E1
:101890004F913F912F910F900BBE0F900FBE0F9065
:1018A0001F9018958091C600EFCF1F920F920FB630
:1018B0000F9211240BB60F922F933F934F938F9358
:1018C0009F93EF93FF938091C80082FD29C04091C0
:1018D000CE008091E3049091E40401968F739927E0
:1018E0002091E5043091E6048217930759F0E091C6
:1018F000E304F091E404ED55FB4F40839093E4043E
:101900008093E304FF91EF919F918F914F913F91CD
:101910002F910F900BBE0F900FBE0F901F90189538
:101920008091CE00EFCF1F920F920FB60F9211242D
:101930000BB60F922F933F934F938F939F93EF93F9
:10194000FF938091D00082FD29C04091D600809104
:101950005B0490915C0401968F73992720915D043C
:1019600030915E048217930759F0E0915B04F09187
:101970005C04E55EFB4F408390935C0480935B04C2
:10198000FF91EF919F918F914F913F912F910F90E8
:101990000BBE0F900FBE0F901F9018958091D60030
:1019A000EFCF1F920F920FB60F9211240BB60F922A
:1019B0002F933F934F938F939F93EF93FF93809138
:1019C000300182FD29C0409136018091D30390916E
:1019D000D40301968F7399272091D5033091D603B4
:1019E0008217930759F0E091D303F091D403ED5699
:1019F000FC4F40839093D4038093D303FF91EF91E6
:101A00009F918F914F913F912F910F900BBE0F900F
:101A10000FBE0F901F90189580913601EFCF1F9247
:101A20000F920FB60F9211240BB60F922F933F9384
:101A30008F939F93EF93FF93209127053091280573
:101A40008091290590912A052817390709F1E0911D
:101A50002905F0912A05E951FB4F20818091290544
:101A600090912A0501968F73992790932A05809368
:101A700029052093C600FF91EF919F918F913F918F
:101A80002F910F900BBE0F900FBE0F901F901895C7
:101A90008091C1008F7D8093C100EDCF1F920F9286
:101AA0000FB60F9211240BB60F922F933F938F9383
:101AB0009F93EF93FF9320919F043091A004809116
:101AC000A1049091A2042817390709F1E091A1041B
:101AD000F091A204E15AFB4F20818091A1049091E2
:101AE000A20401968F7399279093A2048093A10476
:101AF0002093CE00FF91EF919F918F913F912F9175
:101B00000F900BBE0F900FBE0F901F9018958091F5
:101B1000C9008F7D8093C900EDCF1F920F920FB641
:101B20000F9211240BB60F922F933F938F939F9395
:101B3000EF93FF93209117043091180480911904BA
:101B400090911A042817390709F1E0911904F091CE
:101B50001A04E952FC4F20818091190490911A04D3
:101B600001968F73992790931A04809319042093F8
:101B7000D600FF91EF919F918F913F912F910F9000
:101B80000BBE0F900FBE0F901F9018958091D10043
:101B90008F7D8093D100EDCF1F920F920FB60F92E1
:101BA00011240BB60F922F933F938F939F93EF9334
:101BB000FF9320918F033091900380919103909136
:101BC00092032817390709F1E0919103F0919203EC
:101BD000E15BFC4F208180919103909192030196EB
:101BE0008F739927909392038093910320933601EA
:101BF000FF91EF919F918F913F912F910F900BBE8D
:101C00000F900FBE0F901F901895809131018F7D1E
:101C100080933101EDCFCF92DF92EF92FF920F933D
:101C20001F93CF93DF93EC016A017B014115514E65
:101C30006105710509F1EC89FD8981E090E008A05A
:101C400002C0880F991F0A94E2F7808360E079E070
:101C50008DE390E0A70196010E94153D89019A014C
:101C600001501109210931093695279517950795D6
:101C7000980101151041A8F0EC89FD89108260E8F7
:101C800074E88EE190E0A70196010E94153DDA010B
:101C9000C9010197A109B109B695A79597958795AF
:101CA0009C01E889F9893083EA89FB89208319A29C
:101CB000EE89FF89408181E090E09C010C8C02C09C
:101CC000220F331F0A94E2F7242B2083EE89FF8929
:101CD00040819C010D8C02C0220F331F0A94E2F751
:101CE000242B2083EE89FF8940819C010E8C02C049
:101CF000220F331F0A94E2F7242B2083EE89FF89F9
:101D000020810F8C02C0880F991F0A94E2F78095FA
:101D100082238083DF91CF911F910F91FF90EF90ED
:101D2000DF90CF900895CF92DF92EF92FF92EDE295
:101D3000F3E01382128288EEC82E83E0D82EE12CC5
:101D4000F12CC482D582E682F78262E672E071836A
:101D500060838BE295E09587848787EE94E0978790
:101D6000868785EC90E0918B808B84EC90E0938B60
:101D7000828B80EC90E0958B848B81EC90E0978B4C
:101D8000868B82EC90E0918F808F86EC90E0938F31
:101D9000828F44E0448F33E0358F27E0268F95E033
:101DA000978F81E080A3EBE0F3E013821282C4827C
:101DB000D582E682F78271836083A3EAB4E0B587B7
:101DC000A487AFE5B4E0B787A687ADECB0E0B18BF0
:101DD000A08BACECB0E0B38BA28BA8ECB0E0B58BE1
:101DE000A48BA9ECB0E0B78BA68BAAECB0E0B18FC6
:101DF000A08FAEECB0E0B38FA28F448F358F268FCB
:101E0000978F80A3E9EEF2E013821282C482D5821A
:101E1000E682F78271836083ABE1B4E0B587A48783
:101E2000A7EDB3E0B787A687A5EDB0E0B18BA08B97
:101E3000A4EDB0E0B38BA28BA0EDB0E0B58BA48B8A
:101E4000A1EDB0E0B78BA68BA2EDB0E0B18FA08F73
:101E5000A6EDB0E0B38FA28F448F358F268F978F7A
:101E600080A3E7ECF2E013821282C482D582E6827C
:101E7000F7827183608363E973E0758764876FE439
:101E800073E07787668765E371E0718B608B64E34D
:101E900071E0738B628B60E371E0758B648B61E33F
:101EA00071E0778B668B62E371E0718F608F66E320
:101EB00071E0738F628F448F358F268F978F80A349
:101EC000FF90EF90DF90CF9008950895DC01ED91A1
:101ED000FC910480F581E02D1994EF92FF920F930D
:101EE0001F93DC01ED91FC91048CF58DE02D19958B
:101EF0001F910F91FF90EF9008950895EF92FF9238
:101F00000F931F93DC01ED91FC9111971A960D919F
:101F10001C911B9718962D913C911997048CF58D67
:101F2000E02D7B0140E050E060E070E019951F91EA
:101F30000F91FF90EF9008950895FC016370658BF9
:101F4000613059F0633049F08481958191878087B1
:101F5000868197819387828708958681978191876B
:101F6000808784819581938782870895CF92DF92BD
:101F7000EF92FF920F931F93CF93DF9300D000D087
:101F8000CDB7DEB76C017801FC01A081B181169656
:101F9000ED91FC9117978FE0E536F80729F5240FAE
:101FA000351F8901015011095096ED91FC9151970F
:101FB0009B01C6011995D601ED91FC910288F38928
:101FC000E02DBFE0ED37FB0709F526960FB6F89434
:101FD000DEBF0FBECDBFDF91CF911F910F91FF905C
:101FE000EF90DF90CF900895C6012D833E834B8301
:101FF0005C8369837A831995F601A081B1817A8126
:1020000069815C814B813E812D81C9CFC6012696B5
:102010000FB6F894DEBF0FBECDBFDF91CF911F91F9
:102020000F91FF90EF90DF90CF901994CF92DF92B5
:10203000EF92FF920F931F93CF93DF9300D000D0C6
:10204000CDB7DEB76C01FC01A081B1811696ED9190
:10205000FC9117978FE0E536F80729F5260F371F13
:10206000215031095096ED91FC91519778018A01E8
:10207000C6011995D601ED91FC910288F389E02DF6
:10208000BFE0ED37FB0709F526960FB6F894DEBFE3
:102090000FBECDBFDF91CF911F910F91FF90EF90B9
:1020A000DF90CF900895C6012D833E834B835C83E0
:1020B00069837A831995F601A081B1817A8169815A
:1020C0005C814B813E812D81C9CFC60126960FB61A
:1020D000F894DEBF0FBECDBFDF91CF911F910F915E
:1020E000FF90EF90DF90CF9019942F923F924F92F4
:1020F0005F926F927F928F929F92AF92BF92CF9298
:10210000DF92EF92FF920F931F93CF93DF934C01D7
:10211000EB016A0159011701C801841B950B9C0151
:1021200097FD98C0390125014C1A5D0AA20157FCA0
:102130008CC061E0421753070CF47AC060E0AC1623
:10214000BD0694F42E014A185B083601601A710A24
:1021500077FC89C09C2D8D2D6801092F182F9C2F8D
:102160008D2FE501A92EB82E720157FC78C0F59489
:10217000E794C016D1060CF458C00FEF1FEF6111A1
:1021800033C0F401A081B1811896ED91FC911997AB
:102190008FE0E636F80721F41496ED91FC9115973F
:1021A0009101A601BE01C4011995E618F708F7FED2
:1021B00004C0C00ED11EE40CF51C2196AC16BD0661
:1021C00004F7DF91CF911F910F91FF90EF90DF9077
:1021D000CF90BF90AF909F908F907F906F905F90C7
:1021E0004F903F902F900895F401A081B1811896EF
:1021F000ED91FC9119978FE0E636F80721F41496DB
:10220000ED91FC9115979101AE01B601C4011995AC
:10221000E618F708F7FE04C0C00ED11EE40CF51C4A
:102220002196AC16BD0604F7CCCF01E010E0A7CF95
:102230003A012C019A2D8B2D5801092F182F9C2F14
:102240008D2FE601C92ED82E7ACF44275527441961
:1022500055096FCF22273327281B390B63CFEFEFA8
:10226000EE1AFE0A84CF71946194710873CFCF92F5
:10227000DF92EF92FF920F931F93CF93DF9300D0E3
:1022800000D0CDB7DEB76C01FC01A081B1815896BA
:10229000ED91FC9159978FE0E63BF80771F51696A2
:1022A000ED91FC9117978FE0E536F807C9F5240FFB
:1022B000351F215031095096ED91FC9151977801CD
:1022C00089019B01C6011995D601ED91FC91028807
:1022D000F389E02DBFE0ED37FB0791F426960FB6AA
:1022E000F894DEBF0FBECDBFDF91CF911F910F914C
:1022F000FF90EF90DF90CF900895C6011995EECF33
:10230000C60126960FB6F894DEBF0FBECDBFDF9193
:10231000CF911F910F91FF90EF90DF90CF90199484
:10232000C6012D833E834B835C8369837A83199531
:10233000F601A081B1817A8169815C814B813E8106
:102340002D81B5CFCF92DF92EF92FF920F931F9323
:10235000CF93DF9300D000D0CDB7DEB76C01FC0186
:10236000A081B1815A96ED91FC915B9780E1E631B5
:10237000F80769F51696ED91FC9117978FE0E53611
:10238000F807C1F5260F371F215031095096ED91FE
:10239000FC91519778018A01C6011995D601ED91FA
:1023A000FC910288F389E02DBFE0ED37FB0791F443
:1023B00026960FB6F894DEBF0FBECDBFDF91CF914A
:1023C0001F910F91FF90EF90DF90CF900895C6017D
:1023D0001995EECFC60126960FB6F894DEBF0FBE54
:1023E000CDBFDF91CF911F910F91FF90EF90DF90C4
:1023F000CF901994C6012D833E834B835C83698300
:102400007A831995F601A081B1817A8169815C8115
:102410004B813E812D81B6CFAF92BF92CF92DF929A
:10242000EF92FF920F931F93CF93DF9300D000D0D2
:10243000CDB7DEB76C016217730709F45CC04017B3
:10244000510771F1FC01A081B1811696ED91FC91CB
:1024500017978FE0E536F80709F08CC05096ED919C
:10246000FC915197C6011995D601ED91FC91028816
:10247000F389E02DBFE0ED37FB0709F069C0269630
:102480000FB6F894DEBF0FBECDBFDF91CF911F9185
:102490000F91FF90EF90DF90CF90BF90AF90089595
:1024A000261737072CF4962F872FB901292F382F9D
:1024B000F601A081B1815A96ED91FC915B97261BA4
:1024C000370B2F5F3F4F80E1E631F80709F064C01A
:1024D0001696ED91FC9117978FE0E536F80709F015
:1024E00064C0260F371F215031095096ED91FC91A1
:1024F00051978A01B7CF041715072CF4942F852F15
:10250000A801092F182FF601A081B1815896ED91ED
:10251000FC915997041B150B58018FEFA81AB80AA4
:102520008FE0E63BF807E1F51696ED91FC911797E1
:102530008FE0E536F80709F04AC08A010A0D1B1D35
:10254000015011095096ED91FC9151979B018ACF52
:10255000C60126960FB6F894DEBF0FBECDBFDF9141
:10256000CF911F910F91FF90EF90DF90CF90BF9090
:10257000AF901994C60129833A834D835E836B83A0
:102580007C831995F601A081B1817C816B815E818C
:102590004D813A81298162CF8701C60119956FCF9C
:1025A00087019501C60119956ACFC60129833A832F
:1025B0004D835E836B837C831995F601A081B18185
:1025C0007C816B815E814D813A8129818ACFC601F0
:1025D0004D835E836B837C831995F601A081B18165
:1025E0007C816B815E814D81A8CF2F923F924F926B
:1025F0005F926F927F928F929F92AF92BF92CF9293
:10260000DF92EF92FF920F931F93CF93DF9300D04F
:102610001F92CDB7DEB76C017C836B834A01180132
:102620003701FC01A081B1811696ED91FC911797BD
:102630008FE0E536F80709F087C0AB80BC80A20EBA
:10264000B31E8B819C818A159B050CF052C024011E
:10265000420C531C91E0491A510831C05896ED9133
:10266000FC9159979FE0E63BF90789F51696ED91A5
:10267000FC9117978FE0E536F80709F05FC0509698
:10268000ED91FC915197730182012B813C81A40152
:10269000B901C6011995F601A081B1815296ED915B
:1026A000FC9153978FE0ED37F80709F041C08B811B
:1026B0009C8101969C838B838A159B05D1F01C9687
:1026C000ED91FC911D9781E1E733F80739F2830121
:1026D0009101A4016B817C81C6011995F601A0814D
:1026E000B1818B819C8101969C838B838A159B058C
:1026F00031F75296ED91FC9153979FE0ED37F90732
:1027000069F50F900F900F900F90DF91CF911F916F
:102710000F91FF90EF90DF90CF90BF90AF909F9080
:102720008F907F906F905F904F903F902F90089583
:10273000C6011995F601A081B181B9CFC6011995DD
:10274000F601A081B1819BCFC60129833A831995F7
:10275000F601A081B1813A8129816FCFC6010F9026
:102760000F900F900F90DF91CF911F910F91FF90DD
:10277000EF90DF90CF90BF90AF909F908F907F9021
:102780006F905F904F903F902F9019942F923F92AF
:102790004F925F926F927F928F929F92AF92BF9271
:1027A000CF92DF92EF92FF920F931F93CF93DF931D
:1027B00000D01F92CDB7DEB79C838B835B014A01AB
:1027C000690118013701FC01A081B1811696ED91D4
:1027D000FC9117978FE0E536F80709F0DEC01E96EA
:1027E000ED91FC911F9783019601A401B5018B81A6
:1027F0009C8119952401420C531CF1E04F1A510899
:10280000AB81BC81ED91FC9111970684F785E02D99
:102810009601A201B501CD011995EB81FC81A08142
:10282000B1811C96ED91FC911D9781E1E733F8078A
:1028300009F07DC05896ED91FC9159978FE0E63BE9
:10284000F80709F074C01696ED91FC9117978FE088
:10285000E536F80709F0B4C05096ED91FC91519718
:10286000730182019501A401B5018B819C811995A9
:10287000EB81FC81A081B1815296ED91FC9153973F
:102880008FE0ED37F80709F0A3C01C96ED91FC919D
:102890001D97CA0CDB1CB6016150710981E1E73359
:1028A000F80709F050C05896ED91FC9159978FE0C8
:1028B000E63BF80709F047C01696ED91FC91179793
:1028C0008FE0E536F80709F08BC05096ED91FC914A
:1028D0005197730182019B01A4018B819C81199501
:1028E000AB81BC81ED91FC910288F389E02DBFE0C2
:1028F000ED37FB0709F059C0BFE0ED37FB07A1F545
:102900000F900F900F900F90DF91CF911F910F912B
:10291000FF90EF90DF90CF90BF90AF909F908F90FF
:102920007F906F905F904F903F902F90089583011C
:102930009101A401B5018B819C811995EB81FC81EA
:10294000A081B181A2CF83019101A4018B819C81DF
:102950001995AB81BC81ED91FC910288F389E02D42
:10296000BFE0ED37FB0761F28B819C810F900F90E8
:102970000F900F90DF91CF911F910F91FF90EF90EB
:10298000DF90CF90BF90AF909F908F907F906F908F
:102990005F904F903F902F9019948B819C81199557
:1029A000EB81FC81A081B1811ACF8B819C8119952B
:1029B000AB81BC81ED91FC910288F389E02D9CCF25
:1029C0008B819C811995EB81FC81A081B18144CFE1
:1029D0008B819C811995EB81FC81A081B18155CFC0
:1029E0008B819C8169837A831995EB81FC81A0811D
:1029F000B1817A81698169CFFC011382128282E7F9
:102A000092E09183808375836483578346837187C3
:102A1000608753874287158A15861486178616861F
:102A200081E0848B2FEF3FEF338B228B318B208B18
:102A3000868B178A118E108E08952F923F924F9297
:102A40005F926F927F928F929F92AF92BF92CF923E
:102A5000DF92EF92FF920F931F93CF93DF93CDB747
:102A6000DEB76E970FB6F894DEBF0FBECDBF9A8368
:102A70008983598B488B1F830E835701CD82DC01DC
:102A800058964D915C9159974115510509F481C1B2
:102A9000FA01349694913297A591B491291BCD01F6
:102AA000E7E02E9F800D911D1124FA0125913491AC
:102AB0003C832B83FC0145905490FC013296349169
:102AC0003A87319644914A8B32961491319604910B
:102AD0005D81523008F4E9C0C12E012E000CDD08E2
:102AE000802F002E000C990B9D8B8C8BE981FA8135
:102AF000A081B1811696ED91FC9117972FE0E536F4
:102B0000F20709F03AC1FA89FF2309F492C02D8136
:102B1000622E712CC69CC001C79C900DD69C900D56
:102B20001124AC01460F571F5F8B4E8BA12C212C1B
:102B3000312C812F110F990BFB01E80FF91FFD8735
:102B4000EC876F5F7F4F860F971F2A8521504C01BE
:102B5000820E911C28893989200F311D07FD3A9575
:102B6000398F288F5A85552309F45EC08A2D90E04D
:102B70004C895D89480F591F649E9001659E300DF8
:102B8000749E300D1124E889F989E20FF31FF9874B
:102B9000E8870C851D85CE88DF88B22CFC85BF1A9E
:102BA000288D398D280F391F3F872E871E8F0D8F57
:102BB0000CC0330CC60CD71C2D8D3E8D2F5F3F4FA4
:102BC0003E8F2D8F2815390569F18D8D8B0D8770FE
:102BD00041F4C2010196EB81FC81E40DF51D3490B6
:102BE0002C0137FEE6CF3D81313009F444C01A96FE
:102BF000ED91FC911B972FE0ED36F20721F45C96E6
:102C0000ED91FC915D97EE80FF80830193014885F3
:102C10005985B60189819A811995E981FA81A08146
:102C2000B181C7CF3A85230EA3944A89A41608F42C
:102C300099CF5296ED91FC9153973FE0ED37F30712
:102C400009F080C06E960FB6F894DEBF0FBECDBF00
:102C5000DF91CF911F910F91FF90EF90DF90CF9078
:102C6000BF90AF909F908F907F906F905F904F90AC
:102C70003F902F9008951896ED91FC9119974FE091
:102C8000E636F40721F41496ED91FC9115972E8108
:102C90003F814E855F856D8D7E8D89819A811995E5
:102CA000E981FA81A081B18184CF1D8A1C8AC12C5F
:102CB000D12C1CCF4C855D854F5F5F4F5D874C8766
:102CC00088859985860D971D99878887EB81FC817A
:102CD0003196FC83EB832E853F85E217F30709F0DD
:102CE000B5C054019D014E815F818416950609F49B
:102CF00075C15D81513009F42CC11A96ED91FC919A
:102D00001B976A897B89661977092FE0ED36F207F0
:102D100021F45C96ED91FC915D9775010A851B8508
:102D200093014889598989819A811995A981BA8124
:102D3000ED91FC910288F389E02DBFE0ED37FB07B0
:102D400009F480CF89819A816E960FB6F894DEBF20
:102D50000FBECDBFDF91CF911F910F91FF90EF90EC
:102D6000DF90CF90BF90AF909F908F907F906F90AB
:102D70005F904F903F902F90199489819A816B8F2B
:102D80007C8F1995E981FA81A081B1817C8D6B8D51
:102D9000BACE18968D919C911997681779070CF007
:102DA00051CF1A968D919C911B97E889F989E81764
:102DB000F9070CF047CF6C2C712CAB0186E0C89E54
:102DC000400D511D11245B8B4A8B141615060CF017
:102DD00039CFD301AA0FBB1FAA0FBB1FAA0FBB1F5E
:102DE000BB87AA87CD018E0F9F1F181619060CF0FE
:102DF00029CFE981FA818789811103C0203B08F03E
:102E00002F5FE981FA81A081B1811696ED91FC9145
:102E100017973FE0E536F30709F08DC0F5E02F9FE7
:102E200090011124A90142505E4F5D874C877C833D
:102E30006B83CB0105969F878E87E889F989389641
:102E40002F01798768874501A980BA80EC85FD85C7
:102E50003490C888D988DD8ACC8A29C0FD81F130B8
:102E6000F1F11A96ED91FC911B972FE0ED36F207E8
:102E700009F05BC05C96ED91FC915D97EE80FF8060
:102E800083019301A60168857985C5011995F5012E
:102E9000A081B1813694C60CD71C2C893D892F5F47
:102EA0003F4F3D8B2C8B2415350509F403CF30FCA7
:102EB000D5CF2E813F818216930661F33D8131305B
:102EC00031F11A96ED91FC911B972FE0ED36F20748
:102ED00021F45C96ED91FC915D977401D1CF189629
:102EE000ED91FC9119972FE0E636F20709F514965B
:102EF000ED91FC9115972E813F814C895D896B8105
:102F00007C81C5011995F501A081B181C3CF1896C7
:102F1000ED91FC9119974FE0E636F40721F41496F1
:102F2000ED91FC9115979401E8CFEE80FF80A8CF3A
:102F30002E813F81E2CF89819A812A8F6B8F7C8F8E
:102F40001995E981FA81A081B1817C8D6B8D2A8DE3
:102F500065CF1C96ED91FC911D97B1E1E733FB071E
:102F600009F049C0D9015896ED91FC915997BFE0FD
:102F7000E63BFB0709F03FC0D9011696ED91FC91A5
:102F80001797BFE0E536FB0771F508891989095FD6
:102F90001F4FD9015096ED91FC91519775012E85E7
:102FA0003F8548895989B90189819A811995A981F3
:102FB000BA81ED91FC910288F389E02DBFE0ED37F5
:102FC000FB0709F4BACE89819A811995A981BA8142
:102FD000ED91FC910288F389E02DAFCE5296ED91F0
:102FE000FC915397AACE89819A811995E981FA813A
:102FF00020813181CACF850128E030E04889598994
:103000006B817C8189819A811995A981BA81ED9121
:10301000FC910288F389E02D90CEAF92BF92CF92BF
:10302000EF92FF920F931F93CF93DF93EC01888D64
:10303000998D009709F46BC06A3009F459C06D305E
:1030400009F44AC0FC0134962491621708F444C084
:103050003196E491E61708F43FC0FC013296A59141
:10306000B491462F50E0FA01E21BF1095F01AA0C6E
:10307000BB1CAA0CBB1CAA0CBB1CAE1ABF0AAA0E16
:10308000BB1EF501329624913196E4912223C1F0C2
:10309000EE23B1F0F5013596E4913E89CC883111EB
:1030A00072C02C853D854E855F85822F732FEA88FF
:1030B000FB8808891989262F682FCE010E941D15CB
:1030C000F5013496E4912C898C859D85E29F800DD5
:1030D000911D11249D878C8781E090E0DF91CF9135
:1030E0001F910F91FF90EF90CF90BF90AF900895F8
:1030F0001D861C862C89FC013696E4918E859F8561
:103100002E9F800D911D11249F878E87E5CF6A30F9
:1031100009F45DC06D3001F38E89CC882C853D8526
:103120008823C9F0A90186E0C89E400D511D1124D5
:10313000888599858417950774F41D861C864E85AD
:103140005F85E8E0CE9E400D511D11245F874E87BC
:1031500080E070E004C04E855F85822F732FEA887F
:10316000FB8808891989262F682FCE010E941D151A
:103170002C898C859D85F6E02F9F800D911D112453
:103180009D878C87A9CF0E2E000CFF0BE20FF11D3F
:10319000CE9EA001CF9E500D11242C853D85420F5F
:1031A000531FE885F985E417F5070CF07CCF1D86E1
:1031B0001C86FC01369684914E855F85C89E400D25
:1031C000511D11245F874E8780E070E070CF1D860F
:1031D0001C862C898E859F8538E0239F800D911D4C
:1031E00011249F878E8778CFDC019C96ED91FC910E
:1031F0009D979081D1968C91892B80830895CF9350
:10320000DF93EC0189A187FD0AC0ECA5FDA59081A3
:1032100089A9809589238083DF91CF91089584E0E7
:103220000E94713A81E00E94623A80E00E946C3A0A
:10323000ECCF0F931F93CF93DF931F92CDB7DEB7E1
:103240008C01DC01ED91FC910680F781E02DB8E165
:10325000EF3FFB0709F084C0FC0181A187FD84C01A
:10326000D8019C96ED91FC919D979081D1968C917F
:1032700080958923808361116AC030E2D8019A96D3
:10328000ED91FC919B979081D2968C91D2978095ED
:103290008923808391968C9187FD31C048E050E06E
:1032A00020E81DC09E968C91892B8083D80198962A
:1032B000ED91FC9199979081D0968C91D0978095C3
:1032C000892380839896ED91FC9199979081D0966F
:1032D0008C91892B8083269541505109A1F0822F32
:1032E0008323D8019496ED91FC919597908181115B
:1032F000D9CF9E968C91809589238083D7CF3EBD70
:103300000DB407FEFDCFD8019A96ED91FC919B97E5
:103310009081D2968C91D297892B8083ED91FC91EC
:103320000288F389E02DB8E1E43FFB0791F4D8016E
:103330009C96ED91FC919D979081D1968C91892BD3
:1033400080830F90DF91CF911F910F91089531E20B
:1033500095CFC8010F90DF91CF911F910F911994D4
:1033600069831995698187CF84E069830E94713AE6
:1033700081E00E94623A80E00E946C3A698170CFDD
:103380001F93CF93DF93EC0163706D8B623009F470
:10339000B6C0633009F4A9C0613009F44BC080EFB6
:1033A00090E09987888780E491E09B878A8718E47A
:1033B000E881F9810680F781E02D88E1EF3FF80789
:1033C00009F090C089A187FDA4C0ECA5FDA590815E
:1033D00089A9809589238083EAA5FBA590818AA984
:1033E00080958923808389A187FD2EC048E050E025
:1033F00020E814C08EA5892B8083E8A5F9A59081CB
:1034000088A9809589238083E8A5F9A5908188A95A
:10341000892B8083269541505109D9F0822F8673DC
:10342000ECA1FDA190818111E5CF8EA58095892326
:103430008083E3CF80E491E09987888780EF90E0F4
:103440009B878A8718E2B4CF86E38EBD0DB407FE52
:10345000FDCFEAA5FBA590818AA9892B808389A14C
:1034600087FD24C048E050E020E814C08EA5892BD9
:103470008083E8A5F9A5908188A980958923808318
:10348000E8A5F9A5908188A9892B808326954150CC
:10349000510981F0822F8123ECA1FDA1908181113E
:1034A000E5CF8EA5809589238083E3CF1EBD0DB423
:1034B00007FEFDCFE881F9810288F389E02D88E1DC
:1034C000E43FF80751F4ECA5FDA5908189A9892B6B
:1034D0008083DF91CF911F910895CE01DF91CF912D
:1034E0001F911994CE01199577CF80E491E09987C7
:1034F000888780EF90E09B878A8718EE59CF80EF0E
:1035000090E09987888780E491E09B878A8718E814
:103510004FCF84E00E94713A81E00E94623A80E0DD
:103520000E946C3A52CFEF92FF920F931F93CF936A
:10353000DF931F92CDB7DEB77C01062F142F40E436
:1035400051E060EF70E029830E94FC148AE992E068
:10355000D70111969C938E935E960C935E975F961F
:103560001C935F97298190962C9390978FEF91965B
:103570008C93919792968C93929793968C93939722
:10358000F701128E138E148E158E602F000F770B9D
:10359000FB01E657F84F8491E82FF0E0EE0FFF1F94
:1035A000E053F84F859194919D969C938E939C97B0
:1035B000FB01EC5BF84FE491D196EC93D197412F4E
:1035C000110F550BFA01E657F84FE491F0E0EE0FBA
:1035D000FF1FE053F84F85919491F70193A782A7BD
:1035E000FA01EC5BF84FE491D296EC93D29799965E
:1035F0001C921E929897D0961C92D09795961C92EA
:103600001E9294979E961C929E9797961C921E923D
:1036100096979F961C920F90DF91CF911F910F91DB
:10362000FF90EF900895FC0181A187FD25C048E03F
:1036300050E020E814C086A5892B8C93A0A5B1A5E5
:103640009C9180A9809589238C93A0A5B1A59C917C
:1036500080A9892B8C9326954150510961F0822FC6
:103660008623A4A1B5A19C918111E5CF86A5809563
:1036700089238C93E3CF08956EBD0DB407FEFDCF73
:103680000895CF93DF93EC01411551056105710554
:1036900021F440E052E16AE770E04A8F5B8F6C8F63
:1036A0007D8F61E08F8D0E94B33860E08F8D0E9426
:1036B000EF3861E08E8D0E94B33861E08E8D0E94FC
:1036C000EF3889A187FF02C00C940E2D61E08AA11A
:1036D0000E94B33860E08AA10E94EF3861E089A1BE
:1036E0000E94B33861E089A10E94EF388BA187FD69
:1036F00003C060E00E94B33889A187FF02C00C9428
:103700000E2D88A187FD21C061E00E94B33861E0E1
:1037100088A10E94EF3864E670E080E090E00E94AB
:10372000660A60E088A10E94EF3864E670E080E0FD
:1037300090E00E94660A61E088A10E94EF3868EC80
:1037400070E080E090E00E94660AE881F9810680DE
:10375000F781E02D88E1EF3FF80711F00C94372D49
:1037600089A187FF02C00C943B2DECA5FDA590819B
:1037700089A9809589238083EAA5FBA590818AA9E0
:1037800080958923808389A187FD24C048E050E08B
:1037900020E814C08EA5892B8083E8A5F9A5908127
:1037A00088A9809589238083E8A5F9A5908188A9B7
:1037B000892B808326954150510989F0822F8F7E75
:1037C000ECA1FDA190818111E5CF8EA58095892383
:1037D0008083E3CF8FEE8EBD0DB407FEFDCFEAA54B
:1037E000FBA590818AA9892B808363E0CE010E948A
:1037F000131B60E8CE010E94131B62E0CE010E9401
:10380000131BEAA5FBA590818AA980958923808353
:1038100089A187FD24C048E050E020E814C08EA5AF
:10382000892B8083E8A5F9A5908188A980958923B3
:103830008083E8A5F9A5908188A9892B80832695A6
:103840004150510989F0822F8F7CECA1FDA190811C
:103850008111E5CF8EA5809589238083E3CF8FECFE
:103860008EBD0DB407FEFDCFEAA5FBA590818AA908
:10387000892B808389A187FF02C00C94172DECA1AE
:10388000FDA190818EA5809589238083E8A5F9A567
:10389000908188A9809589238083E8A5F9A59081E6
:1038A00088A9892B8083ECA1FDA190818EA58095AC
:1038B00089238083E8A5F9A5908188A9809589232B
:1038C0008083E8A5F9A5908188A9892B8083ECA144
:1038D000FDA190818EA5809589238083E8A5F9A517
:1038E000908188A9809589238083E8A5F9A5908196
:1038F00088A9892B8083ECA1FDA190818EA580955C
:1039000089238083E8A5F9A5908188A980958923DA
:103910008083E8A5F9A5908188A9892B8083ECA1F3
:10392000FDA190818EA5809589238083E8A5F9A5C6
:10393000908188A9809589238083E8A5F9A5908145
:1039400088A9892B8083ECA1FDA190818EA580950B
:1039500089238083E8A5F9A5908188A9809589238A
:103960008083E8A5F9A5908188A9892B8083ECA1A3
:10397000FDA190818EA5809589238083E8A5F9A576
:10398000908188A9809589238083E8A5F9A59081F5
:1039900088A9892B8083ECA1FDA190818EA58095BB
:1039A00089238083E8A5F9A5908188A9809589233A
:1039B0008083E8A5F9A5908188A9892B808389A1B6
:1039C00087FD24C048E050E020E814C08EA5892B74
:1039D0008083E8A5F9A5908188A9809589238083B3
:1039E000E8A5F9A5908188A9892B80832695415067
:1039F000510989F0822F817CECA1FDA19081811178
:103A0000E5CF8EA5809589238083E3CF81EC8EBDA1
:103A10000DB407FEFDCF89A187FD24C048E050E02A
:103A200020E814C08EA5892B8083E8A5F9A5908194
:103A300088A9809589238083E8A5F9A5908188A924
:103A4000892B808326954150510989F0822F8073FC
:103A5000ECA1FDA190818111E5CF8EA580958923F0
:103A60008083E3CF80E38EBD0DB407FEFDCFEAA5D2
:103A7000FBA590818AA980958923808389A187FDF0
:103A800024C048E050E020E814C08EA5892B808334
:103A9000E8A5F9A5908188A9809589238083E8A568
:103AA000F9A5908188A9892B8083269541505109D9
:103AB00089F0822F8D7EECA1FDA190818111E5CF4F
:103AC0008EA5809589238083E3CF8DEE8EBD0DB4C6
:103AD00007FEFDCFEAA5FBA590818AA9892B8083EB
:103AE00089A187FD24C048E050E020E814C08EA5DD
:103AF000892B8083E8A5F9A5908188A980958923E1
:103B00008083E8A5F9A5908188A9892B80832695D3
:103B10004150510989F0822F8476ECA1FDA190815A
:103B20008111E5CF8EA5809589238083E3CF84E63C
:103B30008EBD0DB407FEFDCF89A187FD24C048E0EE
:103B400050E020E814C08EA5892B8083E8A5F9A554
:103B5000908188A9809589238083E8A5F9A5908123
:103B600088A9892B808326954150510989F0822F9D
:103B70008370ECA1FDA190818111E5CF8EA5809588
:103B800089238083E3CF83E08EBD0DB407FEFDCF94
:103B900089A187FD24C048E050E020E814C08EA52C
:103BA000892B8083E8A5F9A5908188A98095892330
:103BB0008083E8A5F9A5908188A9892B8083269523
:103BC0004150510989F0822F8271ECA1FDA19081B1
:103BD0008111E5CF8EA5809589238083E3CF82E193
:103BE0008EBD0DB407FEFDCF89A187FD24C048E03E
:103BF00050E020E814C08EA5892B8083E8A5F9A5A4
:103C0000908188A9809589238083E8A5F9A5908172
:103C100088A9892B808326954150510989F0822FEC
:103C20008178ECA1FDA190818111E5CF8EA58095D1
:103C300089238083E3CF81E88EBD0DB407FEFDCFDD
:103C4000EAA5FBA590818AA980958923808389A113
:103C500087FD24C048E050E020E814C08EA5892BE1
:103C60008083E8A5F9A5908188A980958923808320
:103C7000E8A5F9A5908188A9892B808326954150D4
:103C8000510989F0822F887EECA1FDA190818111DC
:103C9000E5CF8EA5809589238083E3CF88EE8EBD06
:103CA0000DB407FEFDCFEAA5FBA590818AA9892B5B
:103CB000808389A187FD24C048E050E020E814C03B
:103CC0008EA5892B8083E8A5F9A5908188A9809588
:103CD00089238083E8A5F9A5908188A9892B808311
:103CE00026954150510989F0822F8578ECA1FDA1DC
:103CF00090818111E5CF8EA5809589238083E3CFC4
:103D000085E88EBD0DB407FEFDCF89A187FF02C0F7
:103D10000C941D2DECA1FDA190818EA58095892389
:103D20008083E8A5F9A5908188A98095892380835F
:103D3000E8A5F9A5908188A9892B8083ECA1FDA134
:103D400090818EA5809589238083E8A5F9A590812F
:103D500088A9809589238083E8A5F9A5908188A901
:103D6000892B8083ECA1FDA190818EA5809589236C
:103D70008083E8A5F9A5908188A98095892380830F
:103D8000E8A5F9A5908188A9892B8083ECA1FDA1E4
:103D900090818EA5809589238083E8A5F9A59081DF
:103DA00088A9809589238083E8A5F9A5908188A9B1
:103DB000892B8083ECA1FDA190818EA5809589231C
:103DC0008083E8A5F9A5908188A9809589238083BF
:103DD000E8A5F9A5908188A9892B8083ECA1FDA194
:103DE00090818EA5809589238083E8A5F9A590818F
:103DF00088A9809589238083E8A5F9A5908188A961
:103E0000892B8083ECA1FDA190818EA580958923CB
:103E10008083E8A5F9A5908188A98095892380836E
:103E2000E8A5F9A5908188A9892B8083ECA1FDA143
:103E300090818EA5809589238083E8A5F9A590813E
:103E400088A9809589238083E8A5F9A5908188A910
:103E5000892B808389A187FD24C048E050E020E8B9
:103E600014C08EA5892B8083E8A5F9A5908188A927
:103E7000809589238083E8A5F9A5908188A9892B5D
:103E8000808326954150510989F0822F8877ECA1D3
:103E9000FDA190818111E5CF8EA580958923808336
:103EA000E3CF88E78EBD0DB407FEFDCFEAA5FBA5E5
:103EB00090818AA980958923808389A187FD24C068
:103EC00048E050E020E814C08EA5892B8083E8A547
:103ED000F9A5908188A9809589238083E8A5F9A513
:103EE000908188A9892B808326954150510989F0BA
:103EF000822F8B7CECA1FDA190818111E5CF8EA555
:103F0000809589238083E3CF8BEC8EBD0DB407FEB3
:103F1000FDCFEAA5FBA590818AA9892B808389A181
:103F200087FD24C048E050E020E814C08EA5892B0E
:103F30008083E8A5F9A5908188A98095892380834D
:103F4000E8A5F9A5908188A9892B80832695415001
:103F5000510989F0822F8973ECA1FDA19081811113
:103F6000E5CF8EA5809589238083E3CF89E38EBD3D
:103F70000DB407FEFDCF89A187FD24C048E050E0C5
:103F800020E814C08EA5892B8083E8A5F9A590812F
:103F900088A9809589238083E8A5F9A5908188A9BF
:103FA000892B808326954150510989F0822F8C728C
:103FB000ECA1FDA190818111E5CF8EA5809589238B
:103FC0008083E3CF8CE28EBD0DB407FEFDCF60E0B1
:103FD000CE010E94131B89A187FD24C048E050E058
:103FE00020E814C08EA5892B8083E8A5F9A59081CF
:103FF00088A9809589238083E8A5F9A5908188A95F
:10400000892B808326954150510989F0822F847332
:10401000ECA1FDA190818111E5CF8EA5809589232A
:104020008083E3CF84E38EBD0DB407FEFDCF89A16D
:1040300087FD21C048E050E020E813C0892B808331
:10404000E8A5F9A5908188A9809589238083E8A5B2
:10405000F9A5908188A9892B808326954150510923
:1040600079F0ECA1FDA190818EA521FDE7CF80958F
:1040700089238083E5CF82E08EBD0DB407FEFDCF9E
:10408000EAA5FBA590818AA980958923808389A1CF
:1040900087FD24C048E050E020E814C08EA5892B9D
:1040A0008083E8A5F9A5908188A9809589238083DC
:1040B000E8A5F9A5908188A9892B80832695415090
:1040C000510989F0822F877FECA1FDA19081811198
:1040D000E5CF8EA5809589238083E3CF87EF8EBDC2
:1040E0000DB407FEFDCFEAA5FBA590818AA9892B17
:1040F000808389A187FD21C048E050E020E813C0FB
:10410000892B8083E8A5F9A5908188A980958923CA
:104110008083E8A5F9A5908188A9892B80832695BD
:104120004150510979F0ECA1FDA190818EA525FDAA
:10413000E7CF809589238083E5CF80E28EBD0DB4E3
:1041400007FEFDCFEAA5FBA590818AA9809589236A
:10415000808389A187FD24C048E050E020E814C096
:104160008EA5892B8083E8A5F9A5908188A98095E3
:1041700089238083E8A5F9A5908188A9892B80836C
:1041800026954150510989F0822F8A7EECA1FDA12C
:1041900090818111E5CF8EA5809589238083E3CF1F
:1041A0008AEE8EBD0DB407FEFDCFEAA5FBA590817A
:1041B0008AA9892B808389A187FF02C00C94232DB3
:1041C000ECA1FDA190818EA5809589238083E8A52F
:1041D000F9A5908188A9809589238083E8A5F9A510
:1041E000908188A9892B8083ECA1FDA190818EA567
:1041F000809589238083E8A5F9A5908188A9809579
:1042000089238083E8A5F9A5908188A9892B8083DB
:10421000ECA1FDA190818EA5809589238083E8A5DE
:10422000F9A5908188A9809589238083E8A5F9A5BF
:10423000908188A9892B8083ECA1FDA190818EA516
:10424000809589238083E8A5F9A5908188A9809528
:1042500089238083E8A5F9A5908188A9892B80838B
:10426000ECA1FDA190818EA5809589238083E8A58E
:10427000F9A5908188A9809589238083E8A5F9A56F
:10428000908188A9892B8083ECA1FDA190818EA5C6
:10429000809589238083E8A5F9A5908188A98095D8
:1042A00089238083E8A5F9A5908188A9892B80833B
:1042B000ECA1FDA190818EA5809589238083E8A53E
:1042C000F9A5908188A9809589238083E8A5F9A51F
:1042D000908188A9892B8083ECA1FDA190818EA576
:1042E000809589238083E8A5F9A5908188A9809588
:1042F00089238083E8A5F9A5908188A9892B8083EB
:1043000060E0CE010E94131BEAA5FBA590818AA95B
:1043100080958923808389A187FD24C048E050E0EF
:1043200020E814C08EA5892B8083E8A5F9A590818B
:1043300088A9809589238083E8A5F9A5908188A91B
:10434000892B808326954150510989F0822F807CEA
:10435000ECA1FDA190818111E5CF8EA580958923E7
:104360008083E3CF80EC8EBD0DB407FEFDCFEAA5C0
:10437000FBA590818AA9892B808363E2CE010E94EC
:10438000131BEAA5FBA590818AA9809589238083C8
:1043900089A187FD24C048E050E020E814C08EA524
:1043A000892B8083E8A5F9A5908188A98095892328
:1043B0008083E8A5F9A5908188A9892B808326951B
:1043C0004150510989F0822F817CECA1FDA190819F
:1043D0008111E5CF8EA5809589238083E3CF81EC81
:1043E0008EBD0DB407FEFDCFEAA5FBA590818AA97D
:1043F000892B808389A187FD21C048E050E020E817
:1044000013C0892B8083E8A5F9A5908188A98095A0
:1044100089238083E8A5F9A5908188A9892B8083C9
:1044200026954150510979F0ECA1FDA190818EA50E
:1044300024FDE7CF809589238083E5CF80E18EBD81
:104440000DB407FEFDCFEAA5FBA590818AA9809552
:104450008923808389A187FD24C048E050E020E8BB
:1044600014C08EA5892B8083E8A5F9A5908188A921
:10447000809589238083E8A5F9A5908188A9892B57
:10448000808326954150510989F0822F857CECA1CB
:10449000FDA190818111E5CF8EA580958923808330
:1044A000E3CF85EC8EBD0DB407FEFDCFEAA5FBA5DD
:1044B00090818AA9892B808389A187FD24C048E047
:1044C00050E020E814C08EA5892B8083E8A5F9A5CB
:1044D000908188A9809589238083E8A5F9A590819A
:1044E00088A9892B808326954150510989F0822F14
:1044F0008E73ECA1FDA190818111E5CF8EA58095F1
:1045000089238083E3CF8EE38EBD0DB407FEFDCFFC
:1045100089A187FD24C048E050E020E814C08EA5A2
:10452000892B8083E8A5F9A5908188A980958923A6
:104530008083E8A5F9A5908188A9892B8083269599
:104540004150510989F0822F8872ECA1FDA1908120
:104550008111E5CF8EA5809589238083E3CF88E202
:104560008EBD0DB407FEFDCFEAA5FBA590818AA9FB
:1045700080958923808389A187FD24C048E050E08D
:1045800020E814C08EA5892B8083E8A5F9A5908129
:1045900088A9809589238083E8A5F9A5908188A9B9
:1045A000892B808326954150510989F0822F877C81
:1045B000ECA1FDA190818111E5CF8EA58095892385
:1045C0008083E3CF87EC8EBD0DB407FEFDCFEAA557
:1045D000FBA590818AA9892B808389A187FD24C0AE
:1045E00048E050E020E814C08EA5892B8083E8A520
:1045F000F9A5908188A9809589238083E8A5F9A5EC
:10460000908188A9892B808326954150510989F092
:10461000822F8678ECA1FDA190818111E5CF8EA536
:10462000809589238083E3CF86E88EBD0DB407FE95
:10463000FDCFEAA5FBA590818AA980958923808377
:1046400089A187FD24C048E050E020E814C08EA571
:10465000892B8083E8A5F9A5908188A98095892375
:104660008083E8A5F9A5908188A9892B8083269568
:104670004150510989F0822F8673ECA1FDA19081F0
:104680008111E5CF8EA5809589238083E3CF86E3D2
:104690008EBD0DB407FEFDCFEAA5FBA590818AA9CA
:1046A000892B808389A187FD24C048E050E020E861
:1046B00014C08EA5892B8083E8A5F9A5908188A9CF
:1046C000809589238083E8A5F9A5908188A9892B05
:1046D000808326954150510989F0822F8874ECA17E
:1046E000FDA190818111E5CF8EA5809589238083DE
:1046F000E3CF88E48EBD0DB407FEFDCFEAA5FBA590
:1047000090818AA980958923808389A187FD24C00F
:1047100048E050E020E814C08EA5892B8083E8A5EE
:10472000F9A5908188A9809589238083E8A5F9A5BA
:10473000908188A9892B808326954150510989F061
:10474000822F8773ECA1FDA190818111E5CF8EA509
:10475000809589238083E3CF87E38EBD0DB407FE68
:10476000FDCFEAA5FBA590818AA9892B808389A129
:1047700087FF02C00C94042D60E0CE010E94131B41
:1047800060E0CE010E94131BEAA5FBA590818AA9D7
:104790008095892380836AE3CE010E94131BEAA5DA
:1047A000FBA590818AA9892B808389A187FD24C0DC
:1047B00048E050E020E814C08EA5892B8083E8A54E
:1047C000F9A5908188A9809589238083E8A5F9A51A
:1047D000908188A9892B808326954150510989F0C1
:1047E000822F8575ECA1FDA190818111E5CF8EA569
:1047F000809589238083E3CF85E58EBD0DB407FEC8
:10480000FDCFEAA5FBA590818AA9809589238083A5
:1048100089A187FD24C048E050E020E814C08EA59F
:10482000892B8083E8A5F9A5908188A980958923A3
:104830008083E8A5F9A5908188A9892B8083269596
:104840004150510989F0822F817BECA1FDA190811B
:104850008111E5CF8EA5809589238083E3CF81EBFD
:104860008EBD0DB407FEFDCFEAA5FBA590818AA9F8
:10487000892B808389A187FF02C00C942E2DECA187
:10488000FDA190818EA5809589238083E8A5F9A557
:10489000908188A9809589238083E8A5F9A59081D6
:1048A00088A9892B8083ECA1FDA190818EA580959C
:1048B00089238083E8A5F9A5908188A9809589231B
:1048C0008083E8A5F9A5908188A9892B8083ECA134
:1048D000FDA190818EA5809589238083E8A5F9A507
:1048E000908188A9809589238083E8A5F9A5908186
:1048F00088A9892B8083ECA1FDA190818EA580954C
:1049000089238083E8A5F9A5908188A980958923CA
:104910008083E8A5F9A5908188A9892B8083ECA1E3
:10492000FDA190818EA5809589238083E8A5F9A5B6
:10493000908188A9809589238083E8A5F9A5908135
:1049400088A9892B8083ECA1FDA190818EA58095FB
:1049500089238083E8A5F9A5908188A9809589237A
:104960008083E8A5F9A5908188A9892B8083ECA193
:10497000FDA190818EA5809589238083E8A5F9A566
:10498000908188A9809589238083E8A5F9A59081E5
:1049900088A9892B8083ECA1FDA190818EA58095AB
:1049A00089238083E8A5F9A5908188A9809589232A
:1049B0008083E8A5F9A5908188A9892B808389A1A6
:1049C00087FD24C048E050E020E814C08EA5892B64
:1049D0008083E8A5F9A5908188A9809589238083A3
:1049E000E8A5F9A5908188A9892B80832695415057
:1049F000510989F0822F8871ECA1FDA1908181116C
:104A0000E5CF8EA5809589238083E3CF88E18EBD95
:104A10000DB407FEFDCFEAA5FBA590818AA980957C
:104A20008923808389A187FD24C048E050E020E8E5
:104A300014C08EA5892B8083E8A5F9A5908188A94B
:104A4000809589238083E8A5F9A5908188A9892B81
:104A5000808326954150510989F0822F867BECA1F5
:104A6000FDA190818111E5CF8EA58095892380835A
:104A7000E3CF86EB8EBD0DB407FEFDCFEAA5FBA507
:104A800090818AA9892B808389A187FD21C048E074
:104A900050E020E813C0892B8083E8A5F9A5908118
:104AA00088A9809589238083E8A5F9A5908188A9A4
:104AB000892B808326954150510979F0ECA1FDA105
:104AC00090818EA523FDE7CF809589238083E5CF54
:104AD00088E08EBD0DB407FEFDCF89A187FD24C0FF
:104AE00048E050E020E814C08EA5892B8083E8A51B
:104AF000F9A5908188A9809589238083E8A5F9A5E7
:104B0000908188A9892B808326954150510989F08D
:104B1000822F8278ECA1FDA190818111E5CF8EA535
:104B2000809589238083E3CF82E88EBD0DB407FE94
:104B3000FDCF89A187FD24C048E050E020E814C0E3
:104B40008EA5892B8083E8A5F9A5908188A98095F9
:104B500089238083E8A5F9A5908188A9892B808382
:104B600026954150510989F0822F8772ECA1FDA151
:104B700090818111E5CF8EA5809589238083E3CF35
:104B800087E28EBD0DB407FEFDCFEAA5FBA590819F
:104B90008AA980958923808389A187FD24C048E064
:104BA00050E020E814C08EA5892B8083E8A5F9A5E4
:104BB000908188A9809589238083E8A5F9A59081B3
:104BC00088A9892B808326954150510989F0822F2D
:104BD000827FECA1FDA190818111E5CF8EA580950A
:104BE00089238083E3CF82EF8EBD0DB407FEFDCF16
:104BF000EAA5FBA590818AA9892B808389A187FDDD
:104C000028C7ECA1FDA190818EA580958923808382
:104C1000E8A5F9A5908188A9809589238083E8A5D6
:104C2000F9A5908188A9892B8083ECA1FDA19081B1
:104C30008EA5809589238083E8A5F9A5908188A910
:104C4000809589238083E8A5F9A5908188A9892B7F
:104C50008083ECA1FDA190818EA58095892380831E
:104C6000E8A5F9A5908188A9809589238083E8A586
:104C7000F9A5908188A9892B8083ECA1FDA1908161
:104C80008EA5809589238083E8A5F9A5908188A9C0
:104C9000809589238083E8A5F9A5908188A9892B2F
:104CA0008083ECA1FDA190818EA5809589238083CE
:104CB000E8A5F9A5908188A9809589238083E8A536
:104CC000F9A5908188A9892B8083ECA1FDA1908111
:104CD0008EA5809589238083E8A5F9A5908188A970
:104CE000809589238083E8A5F9A5908188A9892BDF
:104CF0008083ECA1FDA190818EA58095892380837E
:104D0000E8A5F9A5908188A9809589238083E8A5E5
:104D1000F9A5908188A9892B8083ECA1FDA19081C0
:104D20008EA5809589238083E8A5F9A5908188A91F
:104D3000809589238083E8A5F9A5908188A9892B8E
:104D40008083EAA5FBA590818AA980958923808329
:104D500089A187FD24C048E050E020E814C08EA55A
:104D6000892B8083E8A5F9A5908188A9809589235E
:104D70008083E8A5F9A5908188A9892B8083269551
:104D80004150510989F0822F8672ECA1FDA19081DA
:104D90008111E5CF8EA5809589238083E3CF86E2BC
:104DA0008EBD0DB407FEFDCFEAA5FBA590818AA9B3
:104DB000892B808389A187FD21C048E050E020E84D
:104DC00013C0892B8083E8A5F9A5908188A98095D7
:104DD00089238083E8A5F9A5908188A9892B808300
:104DE00026954150510979F0ECA1FDA190818EA545
:104DF00020FDE7CF809589238083E5CF81E08EBDBC
:104E00000DB407FEFDCFEAA5FBA590818AA9809588
:104E10008923808389A187FD24C048E050E020E8F1
:104E200014C08EA5892B8083E8A5F9A5908188A957
:104E3000809589238083E8A5F9A5908188A9892B8D
:104E4000808326954150510989F0822F807EECA104
:104E5000FDA190818111E5CF8EA580958923808366
:104E6000E3CF80EE8EBD0DB407FEFDCFEAA5FBA516
:104E700090818AA9892B808389A187FD24C048E07D
:104E800050E020E814C08EA5892B8083E8A5F9A501
:104E9000908188A9809589238083E8A5F9A59081D0
:104EA00088A9892B808326954150510989F0822F4A
:104EB0008F70ECA1FDA190818111E5CF8EA5809529
:104EC00089238083E3CF8FE08EBD0DB407FEFDCF35
:104ED00089A187FD24C048E050E020E814C08EA5D9
:104EE000892B8083E8A5F9A5908188A980958923DD
:104EF0008083E8A5F9A5908188A9892B80832695D0
:104F00004150510989F0822F8173ECA1FDA190815C
:104F10008111E5CF8EA5809589238083E3CF81E33E
:104F20008EBD0DB407FEFDCF6BE2CE010E94131BB8
:104F300089A187FD24C048E050E020E814C08EA578
:104F4000892B8083E8A5F9A5908188A9809589237C
:104F50008083E8A5F9A5908188A9892B808326956F
:104F60004150510989F0822F8C70ECA1FDA19081F4
:104F70008111E5CF8EA5809589238083E3CF8CE0D6
:104F80008EBD0DB407FEFDCF89A187FD24C048E08A
:104F900050E020E814C08EA5892B8083E8A5F9A5F0
:104FA000908188A9809589238083E8A5F9A59081BF
:104FB00088A9892B808326954150510989F0822F39
:104FC0008E70ECA1FDA190818111E5CF8EA5809519
:104FD00089238083E3CF8EE08EBD0DB407FEFDCF25
:104FE00089A187FD21C048E050E020E813C0892B4B
:104FF0008083E8A5F9A5908188A98095892380837D
:10500000E8A5F9A5908188A9892B80832695415030
:10501000510979F0ECA1FDA190818EA523FDE7CF88
:10502000809589238083E5CF88E08EBD0DB407FE8F
:10503000FDCF89A187FD24C048E050E020E814C0DE
:105040008EA5892B8083E8A5F9A5908188A98095F4
:1050500089238083E8A5F9A5908188A9892B80837D
:1050600026954150510989F0822F8E74ECA1FDA143
:1050700090818111E5CF8EA5809589238083E3CF30
:105080008EE48EBD0DB407FEFDCF89A187FD24C03F
:1050900048E050E020E814C08EA5892B8083E8A565
:1050A000F9A5908188A9809589238083E8A5F9A531
:1050B000908188A9892B808326954150510989F0D8
:1050C000822F817FECA1FDA190818111E5CF8EA57A
:1050D000809589238083E3CF81EF8EBD0DB407FED9
:1050E000FDCF89A187FD24C048E050E020E814C02E
:1050F0008EA5892B8083E8A5F9A5908188A9809544
:1051000089238083E8A5F9A5908188A9892B8083CC
:1051100026954150510989F0822F8773ECA1FDA19A
:1051200090818111E5CF8EA5809589238083E3CF7F
:1051300087E38EBD0DB407FEFDCF89A187FD24C096
:1051400048E050E020E814C08EA5892B8083E8A5B4
:10515000F9A5908188A9809589238083E8A5F9A580
:10516000908188A9892B808326954150510989F027
:10517000822F8770ECA1FDA190818111E5CF8EA5D2
:10518000809589238083E3CF87E08EBD0DB407FE31
:10519000FDCF89A187FD21C048E050E020E813C081
:1051A000892B8083E8A5F9A5908188A9809589231A
:1051B0008083E8A5F9A5908188A9892B808326950D
:1051C0004150510979F0ECA1FDA190818EA524FDFB
:1051D000E7CF809589238083E5CF80E18EBD0DB434
:1051E00007FEFDCF89A187FD24C048E050E020E8FC
:1051F00014C08EA5892B8083E8A5F9A5908188A984
:10520000809589238083E8A5F9A5908188A9892BB9
:10521000808326954150510989F0822F8370ECA13B
:10522000FDA190818111E5CF8EA580958923808392
:10523000E3CF83E08EBD0DB407FEFDCF89A187FDCE
:1052400024C048E050E020E814C08EA5892B80835C
:10525000E8A5F9A5908188A9809589238083E8A590
:10526000F9A5908188A9892B808326954150510901
:1052700089F0822F8E70ECA1FDA190818111E5CF84
:105280008EA5809589238083E3CF8EE08EBD0DB4FB
:1052900007FEFDCF89A187FD24C048E050E020E84B
:1052A00014C08EA5892B8083E8A5F9A5908188A9D3
:1052B000809589238083E8A5F9A5908188A9892B09
:1052C000808326954150510989F0822F8970ECA185
:1052D000FDA190818111E5CF8EA5809589238083E2
:1052E000E3CF89E08EBD0DB407FEFDCF60E0CE01B7
:1052F0000E94131BEAA5FBA590818AA980958923AA
:10530000808389A187FD24C048E050E020E814C0D4
:105310008EA5892B8083E8A5F9A5908188A9809521
:1053200089238083E8A5F9A5908188A9892B8083AA
:1053300026954150510989F0822F817EECA1FDA173
:1053400090818111E5CF8EA5809589238083E3CF5D
:1053500081EE8EBD0DB407FEFDCFEAA5FBA59081C1
:105360008AA9892B808389A187FD5CC3ECA1FDA15B
:1053700090818EA5809589238083E8A5F9A59081E9
:1053800088A9809589238083E8A5F9A5908188A9BB
:10539000892B8083ECA1FDA190818EA58095892326
:1053A0008083E8A5F9A5908188A9809589238083C9
:1053B000E8A5F9A5908188A9892B8083ECA1FDA19E
:1053C00090818EA5809589238083E8A5F9A5908199
:1053D00088A9809589238083E8A5F9A5908188A96B
:1053E000892B8083ECA1FDA190818EA580958923D6
:1053F0008083E8A5F9A5908188A980958923808379
:10540000E8A5F9A5908188A9892B8083ECA1FDA14D
:1054100090818EA5809589238083E8A5F9A5908148
:1054200088A9809589238083E8A5F9A5908188A91A
:10543000892B8083ECA1FDA190818EA58095892385
:105440008083E8A5F9A5908188A980958923808328
:10545000E8A5F9A5908188A9892B8083ECA1FDA1FD
:1054600090818EA5809589238083E8A5F9A59081F8
:1054700088A9809589238083E8A5F9A5908188A9CA
:10548000892B8083ECA1FDA190818EA58095892335
:105490008083E8A5F9A5908188A9809589238083D8
:1054A000E8A5F9A5908188A9892B808389A187FD2A
:1054B00024C048E050E020E814C08EA5892B8083EA
:1054C000E8A5F9A5908188A9809589238083E8A51E
:1054D000F9A5908188A9892B80832695415051098F
:1054E00089F0822F8E70ECA1FDA190818111E5CF12
:1054F0008EA5809589238083E3CF8EE08EBD0DB489
:1055000007FEFDCF89A187FD24C048E050E020E8D8
:1055100014C08EA5892B8083E8A5F9A5908188A960
:10552000809589238083E8A5F9A5908188A9892B96
:10553000808326954150510989F0822F8471ECA116
:10554000FDA190818111E5CF8EA58095892380836F
:10555000E3CF84E18EBD0DB407FEFDCF89A187FDA9
:1055600024C048E050E020E814C08EA5892B808339
:10557000E8A5F9A5908188A9809589238083E8A56D
:10558000F9A5908188A9892B8083269541505109DE
:1055900089F0822F8370ECA1FDA190818111E5CF6C
:1055A0008EA5809589238083E3CF83E08EBD0DB4E3
:1055B00007FEFDCF61E1CE010E94131B89A187FD8B
:1055C00024C048E050E020E814C08EA5892B8083D9
:1055D000E8A5F9A5908188A9809589238083E8A50D
:1055E000F9A5908188A9892B80832695415051097E
:1055F00089F0822F8770ECA1FDA190818111E5CF08
:105600008EA5809589238083E3CF87E08EBD0DB47E
:1056100007FEFDCF89A187FD24C048E050E020E8C7
:1056200014C08EA5892B8083E8A5F9A5908188A94F
:10563000809589238083E8A5F9A5908188A9892B85
:10564000808326954150510989F0822F8173ECA106
:10565000FDA190818111E5CF8EA58095892380835E
:10566000E3CF81E38EBD0DB407FEFDCF89A187FD99
:1056700024C048E050E020E814C08EA5892B808328
:10568000E8A5F9A5908188A9809589238083E8A55C
:10569000F9A5908188A9892B8083269541505109CD
:1056A00089F0822F817CECA1FDA190818111E5CF51
:1056B0008EA5809589238083E3CF81EC8EBD0DB4C8
:1056C00007FEFDCF89A187FD24C048E050E020E817
:1056D00014C08EA5892B8083E8A5F9A5908188A99F
:1056E000809589238083E8A5F9A5908188A9892BD5
:1056F000808326954150510989F0822F8874ECA14E
:10570000FDA190818111E5CF8EA5809589238083AD
:10571000E3CF88E48EBD0DB407FEFDCF89A187FDE0
:1057200021C048E050E020E813C0892B8083E8A521
:10573000F9A5908188A9809589238083E8A5F9A59A
:10574000908188A9892B808326954150510979F051
:10575000ECA1FDA190818EA523FDE7CF8095892343
:105760008083E5CF88E08EBD0DB407FEFDCF89A113
:1057700087FD24C048E050E020E814C08EA5892BA6
:105780008083E8A5F9A5908188A9809589238083E5
:10579000E8A5F9A5908188A9892B80832695415099
:1057A000510989F0822F8F70ECA1FDA190818111A8
:1057B000E5CF8EA5809589238083E3CF8FE08EBDD2
:1057C0000DB407FEFDCF6CE0CE010E94131B89A132
:1057D00087FD24C048E050E020E814C08EA5892B46
:1057E0008083E8A5F9A5908188A980958923808385
:1057F000E8A5F9A5908188A9892B80832695415039
:10580000510989F0822F8173ECA1FDA19081811152
:10581000E5CF8EA5809589238083E3CF81E38EBD7C
:105820000DB407FEFDCF89A187FD24C048E050E0FC
:1058300020E814C08EA5892B8083E8A5F9A5908166
:1058400088A9809589238083E8A5F9A5908188A9F6
:10585000892B808326954150510989F0822F8673C8
:10586000ECA1FDA190818111E5CF8EA580958923C2
:105870008083E3CF86E38EBD0DB407FEFDCF89A103
:1058800087FD24C048E050E020E814C08EA5892B95
:105890008083E8A5F9A5908188A9809589238083D4
:1058A000E8A5F9A5908188A9892B80832695415088
:1058B000510989F0822F8F70ECA1FDA19081811197
:1058C000E5CF8EA5809589238083E3CF8FE08EBDC1
:1058D0000DB407FEFDCFEAA5FBA590818AA98095AE
:1058E0008923808389A187FD24C048E050E020E817
:1058F00014C08EA5892B8083E8A5F9A5908188A97D
:10590000809589238083E8A5F9A5908188A9892BB2
:10591000808326954150510989F0822F8171ECA135
:10592000FDA190818111E5CF8EA58095892380838B
:10593000E3CF81E18EBD0DB407FEFDCFEAA5FBA547
:1059400090818AA9892B808368E770E080E090E0ED
:105950000E94660AEAA5FBA590818AA98095892301
:10596000808389A187FD24C048E050E020E814C06E
:105970008EA5892B8083E8A5F9A5908188A98095BB
:1059800089238083E8A5F9A5908188A9892B808344
:1059900026954150510989F0822F8972ECA1FDA111
:1059A00090818111E5CF8EA5809589238083E3CFF7
:1059B00089E28EBD0DB407FEFDCFEAA5FBA590815F
:1059C0008AA9892B808368E770E080E090E00E94DC
:1059D000660AE881F9810288F389E02D88E1E43FD5
:1059E000F80709F041C0ECA5FDA5908189A9892B94
:1059F000808380EF90E09987888780E491E09B879F
:105A00008A87DF91CF9108951EBC0DB407FEFDCFAC
:105A10001EBC0DB407FEFDCF0C94C4230E944C3A6B
:105A20000C94811B1EBC0DB407FEFDCF3FCD1EBCE8
:105A30000DB407FEFDCF0C94DF1C1EBC0DB407FE99
:105A4000FDCF0C942A1F1EBC0DB407FEFDCF0C9495
:105A500080211EBC0DB407FEFDCF73C91EBC0DB462
:105A600007FEFDCF0C94DF24CE011995C2CFCE01E5
:105A700019950C94BC1B84E00E94713A81E00E944D
:105A8000623A80E00E946C3A0C94B51B8F929F9210
:105A9000AF92BF92CF92DF92EF92FF920F931F933C
:105AA000CF93DF93FC01490181E0881A9108860EAB
:105AB000971E6401E12CF12C4B01A12CB12C540157
:105AC000992488248C289D28AE28BF28C8010197D6
:105AD000840F951FA0E0B0E06A01E12CF12C760163
